:020000040800F2
:10000000D017002021620008B5050008B7050008D8
:10001000B9050008BB050008BD0500080000000088
:10002000000000000000000000000000BF05000804
:10003000C105000800000000C3050008C505000850
:100040003B6200083B6200083B620008CB56000898
:100050003B6200083B6200083B6200083B6200080C
:100060003B6200083B6200083B6200083B620008FC
:100070003B6200083B6200083B6200083B620008EC
:100080003B6200083B6200083B6200083B620008DC
:100090003B6200083B6200083B6200083B620008CC
:1000A0003B6200083B6200083B6200083B620008BC
:1000B000CD5700085F5800083B6200083B6200080B
:1000C0003B6200083B6200083B6200083B6200089C
:1000D0003B620008176000084B6100083B620008A3
:1000E0003B620008A35600083B6200083B62000820
:1000F000FB5C00083B6200083B6200083B620008B2
:100100003B6200083B6200083B6200083B6200085B
:100110003B6200083B6200083B6200083B6200084B
:100120003B6200083B6200083B6200083B6200083B
:100130003B6200083B6200083B6200083B6200082B
:100140003B6200083B6200083B6200083B6200081B
:100150003B6200083B6200083B6200083B6200080B
:100160003B6200083B6200083B6200083B620008FB
:100170003B6200083B6200083B6200083B620008EB
:100180003B6200083B620008DFF80CD009F050FC2D
:10019000004800479D010008D01700200EB54FF41D
:1001A000A06006F04FF8A82005F07AFE4FF4165430
:1001B000204605F0DBFE204605F076FF05F0A1FCA9
:1001C00000F0CAFA05F04EFC04F074FE01F04CF8A1
:1001D00004F08BFF09F064F84FF4FA71042005F085
:1001E000E5FC08F092FE05F0F7FC42F2CF0440F285
:1001F000F3152146284605F0B8FA2146284605F0B1
:1002000089FAA72140F2E73005F006FDDD4EDFF860
:100210007893DE4CDE4D4FF0000801274FF0180BAD
:10022000607830B101287DD002287CD004287BD1B1
:100230008BE0C6F89C824FF47A6005F072FEC6F837
:100240009C724FF47A7005F06CFE84F802804FF6D1
:10025000FF7A504600F0C1FF1021CD4809F0A0FA06
:10026000CB490C2005F090FB30B3282009F0C4FDE9
:10027000A0602A78072A2ED0082A31D0092A34D043
:10028000C4A109F007FCA068CDE901B74B2100909B
:1002900018236E22084608F0DFFEA06809F084FDEE
:1002A000D9F8A802C043C9F8A802A770A07800280E
:1002B000CFD04FF0000A32E0E078411CE170022814
:1002C000F4D184F80380C6F89C82322005F029FE20
:1002D000C6F89C72EAE7B0A2B1A109F0DBFBD2E755
:1002E000B0A2AFA109F0D6FBCDE7B0A2ACA109F056
:1002F000D1FBC8E72078102804D984F80080207941
:10030000C04320714FF4FA612279481005F054FD82
:100310000AF1010A0AF0FF0A2078401C20702878B0
:10032000504502E005E00DE029E0E3D803206070CD
:1003300025E04FF4FA610122481005F03DFD03204D
:1003400060701CE00320607019E04FF0000A207814
:10035000102802D984F8008027714FF4FA612279BD
:10036000481005F029FD0AF1010A0AF0FF0A207879
:10037000401C2070BAF1030FE9D303206070DFF84E
:1003800030A29AF80200032847D004287ED005281E
:100390007DD006287FF444AF1E21504609F000FAB4
:1003A00084F802804FF4FA7005F0BBFD4FF6FF7041
:1003B00000F013FF1021764809F0F2F974490C207F
:1003C00005F0E2FA002877D0282009F015FDA0609A
:1003D0002A78072A71D0082A70D0092A6FD06DA117
:1003E00009F058FBA068CDE901B74B210090182314
:1003F0006E22084608F030FEA06809F0D5FCD9F856
:10040000A802C043C9F8A802A770A0780028C9D0E4
:100410005E4928781F310871AFE01E21644809F059
:10042000BFF9C6F89C824FF47A6005F07AFDC6F8F1
:100430009C724FF47A7005F074FD84F802804FF4DA
:10044000FA7005F06EFD4FF6FF7000F0C6FE102149
:100450004F4809F0A5F94E490C2005F095FA78B3FC
:10046000282009F0C9FCA0602A78072A31D0082A80
:1004700034D0092A37D047A109F00CFBA068CDE998
:1004800001B718236E224B21009001E03EE049E0C5
:10049000084608F0E1FDA06809F086FCD9F8A8023A
:1004A000C043C9F8A802A770A0780028C7D0374970
:1004B00028781831087123E040E047E04BE04FE036
:1004C000FFE7C6F89C82322005F02BFDC6F89C722F
:1004D000EAE731A232A109F0DDFACFE731A230A17B
:1004E00009F0D8FACAE731A22DA109F0D3FAC5E77D
:1004F00026480721183005F0D3FA0A2005F011FD2F
:100500009AF8020010283FF48BAEF1E71E2128482C
:1005100009F046F91D4806210C3005F0C1FAC6F86D
:100520009C827DE61E21224809F03AF917480621EF
:10053000123005F0B5FAC6F89C7271E6C6F89C82D6
:10054000322005F0EEFCC6F89C725EE712A214A100
:1005500009F0A0FA46E713A211A109F09BFA41E7BE
:1005600012A20FA109F096FA3CE7084807211F30B4
:1005700005F096FA0A2005F0D4FC9AF8020010283B
:10058000CFD0F2E7008041420080424200000020CC
:10059000B210002025640000736869746F75000054
:1005A000257300006A69616E64616F006275000006
:1005B000441100207047FEE7FEE7FEE7FEE77047C4
:1005C00070477047704700000CB5002201920092FE
:1005D0005849086840F4803008604FF4A043086828
:1005E00000F4003000900198401C0190009810B970
:1005F00001989842F3D10868800302D50120009049
:1006000000E000920098012831D14A484030026849
:1006100042F0805202604848026842F44042026060
:100620004448083002680260026842F400420260F6
:10063000026842F4A0520260021F404B13600A6835
:1006400042F080720A600A689201FCD53C4A40F28E
:1006500005711160016821F003010160016841F03A
:10066000020101600168C1F381010229FAD10CBDC8
:1006700010B53448016841F4700101602D480168EB
:1006800041F0010101602B4A00210832116002682B
:100690002D4B1A400260031D2C4A1A60026822F496
:1006A0008022026023480C300160FFF78DFF25494E
:1006B0004FF000608039086010BD70B51D4E0836DF
:1006C000306800F00C00224B224900280FD05D104A
:1006D00004280ED008280ED00B6030681D4AC0F3E5
:1006E0000310121D105C0A68C2400A6070BD0B60E6
:1006F000F3E70D60F1E70F4A121D1068C0F3805454
:10070000106800F03F0034B1B5FBF0F01368C3F39C
:100710008813584305E0B3FBF0F01368C3F3881364
:1007200058431268C2F30142521C5200B0FBF2F06F
:100730000860D2E7003802400070004008544007CB
:10074000003C024088ED00E0FFFFF6FE1030002480
:100750000024F4002C0000207CB50121202006F0AC
:10076000B6FA4FF4C064009401208DF80400002212
:100770008DF8062003228DF805208DF80700054D21
:100780006946284605F050FE2146284605F0B4FE8D
:100790007CBD00000014024001B5BDF800000090CF
:1007A000BDF80000F949088008BD01B5BDF800009A
:1007B0000090BDF80000F549891C088008BD08B507
:1007C000F248801C00880090BDF8000008BDEF4A88
:1007D00010805180704710B5FFF7DEFF052005F04F
:1007E00072FBBDE81040EAE7E948E8490089088063
:1007F0007047E649891C08807047C0F34511C20A5A
:10080000C00200EB4110104480B27047401EC0B2DD
:10081000FCD270472DE9F04102460C46DC4D260A19
:100820002846A988170A4089A1F51343413B1CD0EB
:10083000A1F5A643103B18D02B46A1F5D04893F85C
:1008400006C01B889B1A5B1EB8F104081FD0A1F5D7
:10085000C858B8F1630830D0A1F5A048B8F5A2682F
:1008600066D0BCF1010F7DD081E0FFF795FF3846DF
:10087000FFF79BFFD0B2FFF798FFA889FFF78CFF27
:100880003046FFF792FFE0B2BDE8F0418DE7BCF1E2
:10089000010F00D19AB2FFF77FFF100AFFF785FF23
:1008A000D0B2FFF782FFA889FFF776FF3046FFF747
:1008B0007CFFE0B2BDE8F04177E7BCF1000F27D044
:1008C000FFF76AFF3846FFF770FFD0B2FFF76DFF02
:1008D0002888401EC0F30F20FFF767FF2878401ECE
:1008E000C0B2FFF762FFA889FFF756FF3046FFF757
:1008F0005CFFE0B2FFF759FF6888401EC0F30F208D
:10090000FFF753FFA878BDE8F041401EC0B24CE7A6
:100910009AB2FFF741FF0020FFF747FF0020FFF7E3
:1009200044FF100AFFF741FFD0B2FFF73EFFDAE7BE
:10093000FFF732FF3846FFF738FF6889401C80B266
:10094000FFF72AFFD0B2FFF730FFA889FFF724FF97
:100950003046FFF72AFFA889401C80B2FFF71CFF32
:10096000E0B200E002E0BDE8F0411EE79AB21146B5
:10097000FFF72DFFA8892146BDE8F04127E72DE9C3
:10098000F04300240027DFF80882B8F800208242F4
:1009900003D9B8F802208A4202D80020BDE8F083CB
:1009A000FFF738FFB8F8040049F2413941F6631205
:1009B00045F2103545F21056484507D0A0F5D04114
:1009C000043903D0A84201D0904203D12E20FFF772
:1009D000E3FE09E0B04204D14FF43850FFF7DCFEEB
:1009E00002E02220FFF7D8FEB8F80400A0F513417A
:1009F000203902D10220FFF709FFFFF7E0FEB8F827
:100A000004109142CAD00220FFF700FFFFF7D7FE83
:100A10000246B8F80400484503D0A84201D0B042CD
:100A20000AD10220FFF7F2FEFFF7C9FE0746D0B257
:100A30004FF6FF7101EA0024B8F80410A1F5134045
:100A400025381AD0A1F58A40353816D0001D14D0AB
:100A5000A1F53540053810D0B0F580500DD049458E
:100A600003D0A94201D0B14209D1D00AC002A10AE3
:100A700040EA411040EAD72090E710468EE7BDE8F3
:100A8000F0431046B9E642488088A0F51341413949
:100A900013D0A0F5D04104390FD0A0F5A6411039EC
:100AA0000BD0A0F5C851633907D0A0F5AA41103981
:100AB00005D040F27311072089E629206CE64FF437
:100AC000245069E632488088A0F51341413912D09C
:100AD000A0F5D04104390ED0A0F5A64110390AD0B6
:100AE000A0F5C851633906D0A0F5AA41103904D049
:100AF000002107206BE628204EE64FF420504BE6FD
:100B0000F0B50023224C46F604072146A2798988D5
:100B100041F66315012A03D1B94201D0A94202D19D
:100B2000C2B9A94216D1082814D2DFE800F00406A1
:100B3000080A0C0E101206200CE007200AE0042020
:100B400008E0052006E0012004E0002002E0032088
:100B500000E00220A1F5134C45F2103245F2105688
:100B6000BCF1410C07D0B94205D0914203D0B1424B
:100B700001D0A9427DD1082817D2DFE800F0160481
:100B80000B0D0F11131580230FE000007E00006C89
:100B9000A4000020402308E0C02306E0202304E056
:100BA000602302E0A02300E0E023B14202D14FF431
:100BB000585000E03620914205D0B14203D0A942FE
:100BC00001D043F00803B94201D143F002031946B2
:100BD000FFF7FDFDA188A9420ED0980606D5208812
:100BE0006288904208D22280608005E02088628876
:100BF000904201D922806080B14248D16089FFF7DC
:100C0000CBFD0020FFF7D1FD6089401C80B2FFF7CB
:100C1000C3FD0020FFF7C9FD6089801C80B2FFF78B
:100C2000BBFD2088401EC0F30F20FFF7BEFD60898A
:100C3000C01C80B2FFF7B0FD2078401EC0B2FFF7A5
:100C4000B4FDA089FFF7A8FD0020FFF7AEFDA08945
:100C5000401C80B2FFF7A0FD0020FFF7A6FDA08991
:100C6000801C80B2FFF798FD6088401EC0F30F2003
:100C700000E035E0FFF799FDA089C01C80B2FFF7C6
:100C80008BFDA078BDE8F040401EC0B28DE56089C4
:100C9000FFF782FD0020FFF788FD0020FFF785FDAC
:100CA0002088401EC0F30F20FFF77FFD2078401EF4
:100CB000C0B2FFF77AFDA089FFF76EFD0020FFF7B5
:100CC00074FD0020FFF771FD6088401EC0F30F2007
:100CD000FFF76BFDA078BDE8F040401EC0B264E5B0
:100CE000082812D2DFE800F0040608110A0C0E10E2
:100CF00030230AE0102308E0202306E0382304E034
:100D0000282302E0182300E00823032043F4805145
:100D1000BDE8F0405BE500B5FFF77CFDFFF764FD43
:100D2000FE48FF490088088000BD2DE9F0410446D7
:100D30000D469046FB4E2F0A3046B188220A408964
:100D4000A1F51343413B18D0A1F5A643103B14D0A5
:100D5000B3F5007323D03346A1F5C85C9A791B889C
:100D60001B1B5B1EBCF1630C35D0A1F5D04CBCF154
:100D7000040C51D0012A64D064E0FFF70DFD104649
:100D8000FFF713FDE0B2FFF710FDB089FFF704FD98
:100D90003846FFF70AFDE8B2FFF707FD59E0FFF715
:100DA000FBFC1046FFF701FD7089401C80B2FFF785
:100DB000F3FCE0B2FFF7F9FCB089FFF7EDFC384631
:100DC000FFF7F3FCB089401C80B2FFF7E5FCE8B206
:100DD000FFF7EBFC3DE002B99CB2FFF7DDFC220A15
:100DE0001046FFF7E2FCE0B2FFF7DFFC1046FFF72A
:100DF000DCFCE0B2FFF7D9FCB089FFF7CDFC384648
:100E0000FFF7D3FCE8B2FFF7D0FC3846FFF7CDFC84
:100E1000E8B2FFF7CAFC1CE0012A00D19CB2FFF740
:100E2000BBFC200AFFF7C1FCE0B2FFF7BEFCB089B3
:100E3000FFF7B2FC3846FFF7B8FCE8B2FFF7B5FCA5
:100E400007E09CB22146FFF7C2FCB0892946FFF7B4
:100E5000BEFCB3483189801E0180A0F80280BDE845
:100E6000F08110B50246BE20FFF796FC0520FFF783
:100E70009CFC104608F018FD9FEDAB1B53EC112BAA
:100E800008F0A0FC08F01DFD80B2FFF78EFC0120E9
:100E9000FFF78BFCFF20FFF788FC0020FFF785FCA5
:100EA000BDE81040002080E42DE9F04F9D492A2341
:100EB0002B24898845F2105C4FF430584FF42859A0
:100EC0004FF448754FF0F00A49F2413B4FF4A077D8
:100ED00045F210364FF4F072002810D091484FF0D0
:100EE000010E80F806E00780A0F802A0594501D065
:100EF000B14240D12C250581438184815CE0894841
:100F00004FF0000E80F806E0A0F800A04780594599
:100F100006D0A1F5D04ABAF1040A01D0B1420CD1F1
:100F20002C25058143818481A1F5D043043B01D068
:100F3000B14249D10780428046E0614509D1A0F81D
:100F40000880A0F80A904FF42C51818102804580DE
:100F50003AE0A1F5C856633E06D022210181202146
:100F60004181212181812FE02C21018144818381D4
:100F70000280458028E0A1F5D04ABAF1040A0BD0DE
:100F800061450ED1A0F80880A0F80A904FF42C53C8
:100F90008381058042800FE02C2505814481838177
:100FA0000AE0A1F5C85CBCF1630C11D022230381D7
:100FB0002123438120238381A1F5D043043B01D029
:100FC000B14201D102804780BDE8F04F002097E593
:100FD0004FF02C0CA0F808C043818481058042802A
:100FE000EAE72DE9FC4F04460D46A018401E87B2E3
:100FF00005EB030CACF1010C1FFA8CF6DFF824E1D1
:10100000A3185B1EBEF80400C3F307230193230A51
:1010100000937346A0F513415B89CCF307284FEA90
:101020001529413910D0A0F5A64110390CD0A0F5F2
:10103000D041043908D09EF806A041F6631BBAF1EE
:10104000010F22D1584520D172461846FFF7A4FB64
:101050000098FFF7AAFBE0B2FFF7A7FB0198FFF7A4
:10106000A4FBF8B2FFF7A1FB9089FFF795FB484678
:10107000FFF79BFBE8B2FFF798FB4046FFF795FBB5
:10108000F0B2BDE8FC4FFFF790BB264958450988F0
:1010900028D1881A001B764684B21FFA8CF71846AE
:1010A000FFF77AFB200AFFF780FBE0B2FFF77DFB3A
:1010B0002244521EC2F30F20FFF777FBD0B2FFF796
:1010C00074FBB089FFF768FB4846FFF76EFBE8B298
:1010D000FFF76BFB380AFFF768FBF8B2BDE8FC4F7F
:1010E000FFF763BBA0F5A04C7246BCF5A26C2DD0F7
:1010F000BAF1010F68D020463B462F4650224FF0F0
:1011000051084FF052094FF0530A01461046FFF7BD
:101110005EFB19464046FFF75AFB09E040000020FD
:101120008000006CA4000020666666666666044067
:1011300039464846FFF74BFB31465046FFF747FB21
:1011400029462046BDE8FC4FFFF764BB1846FFF771
:1011500023FB0098FFF729FB5089401C80B2FFF762
:101160001BFBE0B2FFF721FB5089801C80B2FFF728
:1011700013FB0198FFF719FB5089C01C80B2FFF7E1
:101180000BFBF8B2FFF711FB9089FFF705FB484610
:10119000FFF70BFB9089401C80B2FFF7FDFAE8B225
:1011A000FFF703FB9089801C80B2FFF7F5FA4046F9
:1011B000FFF7FBFA9089C01C80B2FFF7EDFAF0B29E
:1011C000BDE8FC4FFFF7F1BA28463346CA1B521E52
:1011D00097B2091B491E8EB290E72DE9FE4F0646D5
:1011E0000024DFF86484B8F80000B8F802504543E2
:1011F000B8F804000027A0F5D041043903D198F8CD
:101200000600012808D000210846FFF703FBFFF77E
:10121000EBFA4FF0D84118E088F806704FF02A0A30
:10122000A8F80AA04FF02B09A8F80C900021084656
:10123000FFF7F0FA012088F80600A8F80A90A8F84D
:101240000CA0E4E7A1F88060641CAC42FAD318203B
:10125000CDE90107FDA1009103461921642208464A
:1012600007F0FAFEBDE8FE8F2DE9F04FA1B04FF078
:101270000008CDF8808001217A2005F028FD0121A9
:10128000084605F03CFD4FF4004BCDF878B0012046
:101290008DF87C008DF87E8002208DF87D00012085
:1012A0008DF87F001EA9EB4805F0BEF84CF23370B4
:1012B0001E9002208DF87C008DF87E8003248DF82E
:1012C0007D4001208DF87F001EA9E34805F0ACF8B1
:1012D0004FF680701E9002208DF87C008DF87E8085
:1012E0008DF87D4001208DF87F00DC4E1EA9304630
:1012F00005F09AF8B5141E9502208DF87C008DF843
:101300007E808DF87D4001208DF87F00D44F1EA98E
:10131000384605F089F81E9502208DF87C008DF87E
:101320007E808DF87D4001208DF87F00CD4C1EA978
:10133000204605F079F80C220021C74805F0ECF8AA
:101340000C220121C44805F0E7F80C220421C24810
:1013500005F0E2F80C220521BF4805F0DDF80C226B
:101360000821BD4805F0D8F80C220921BA4805F03B
:10137000D3F80C220A21B84805F0CEF80C220E2131
:10138000B54805F0C9F80C220F21B34805F0C4F8A0
:101390000C220721304605F0BFF80C220821304608
:1013A00005F0BAF80C220921304605F0B5F80C22F8
:1013B0000A21304605F0B0F80C220B21304605F02A
:1013C000ABF80C221146304605F0A6F80C220D2190
:1013D000304605F0A1F80C220E21304605F09CF8AD
:1013E0000C220F21304605F097F80C2211463846A2
:1013F00005F092F80C221146204605F08DF80F20DA
:101400000890CDF824803C200A90CDF82C80CDF8AF
:101410003080CDF83480CDF8388009200190CDF8A7
:10142000088008200390CDF81080CDF81480CDF806
:101430001880CDF81C8006200F90CDF84080CDF8A4
:10144000448010201290CDF84C80CDF85480CDF817
:101450005080CDF85880CDF85C801895CDF8648028
:1014600080021A90CDF86C8008A81C9001A81D90ED
:101470000FA805F08FF80121062005F005F93220AC
:1014800004F04FFD01210020FFF7A1F9322004F004
:1014900048FD0020FFF79FF96B4A90804FF6FF79D7
:1014A00049F2413A45F2103545F2105441F66316BF
:1014B00046F60407FF2804D3484502D0B0F5134F81
:1014C00075D1D320FFF768F9FFF779F99080FFF71E
:1014D00076F99080FFF773F909EA00209080FFF712
:1014E0006EF9918808439080504560D0BF20FFF787
:1014F00053F9FFF764F99080FFF761F99080FFF7E7
:101500005EF99080FFF75BF909EA00209080FFF711
:1015100056F9918808439080B84248D0D420FFF70C
:101520003BF9FFF74CF99080FFF749F99080FFF7FE
:1015300046F909EA00209080FFF741F991880843B5
:101540009080A84233D04FF45A40FFF725F9FFF7B7
:1015500036F990804FF45B40FFF71EF9FFF72FF943
:1015600009EA002090804FF45C40FFF715F9FFF77F
:1015700026F9918808439080584500D1948090883E
:10158000A04214D0A120FFF707F9FFF718F99080C7
:10159000FFF715F909EA00209080FFF710F991880C
:1015A00008439080A0F5AE41613900D196809088C3
:1015B0004FF020424CF20551504505D0A84203D0CF
:1015C000A04201D0B04212D102F58E72136823F00E
:1015D0000F031360136823F470631360136843F000
:1015E00003031360136843F40073136015E0B842FB
:1015F00001D0884211D102F58E72136823F00F03D7
:101600001360136823F470631360136843F00A03D4
:101610001360136843F44063136050457ED1CF20BC
:10162000FFF7BAF80020FFF7C0F8C120FFF7BDF8B8
:101630003020FFF7BAF8ED20FFF7AEF86420FFF78F
:10164000B4F8032010E00000A400002072756E20A2
:101650002020000000040240000C02400010024064
:101660000014024000180240FFF79FF81220FFF715
:101670009CF88120FFF799F8E820FFF78DF8852086
:10168000FFF793F81020FFF790F87A20FFF78DF816
:10169000CB20FFF781F83920FFF787F82C20FFF7E0
:1016A00084F80020FFF781F83420FFF77EF802204D
:1016B000FFF77BF8F720FFF76FF82020FFF775F8AA
:1016C000EA20FFF769F80020FFF76FF80020FFF726
:1016D0006CF8C020FFF760F81B20FFF766F8C12008
:1016E000FFF75AF80120FFF760F8C520FFF754F81C
:1016F0003020FFF75AF83020FFF757F8C720FFF7E0
:101700004BF8B720FFF751F83620FFF745F848208F
:10171000FFF74BF83A20FFF73FF800E0A9E055202B
:10172000FFF743F8B120FFF737F80020FFF73DF847
:101730001A20FFF73AF8B620FFF72EF80A20FFF735
:1017400034F8A220FFF731F8F220FFF725F8002047
:10175000FFF72BF82620FFF71FF80120FFF725F8E9
:10176000E020FFF719F80F20FFF71FF82A20FFF7F6
:101770001CF82820FFF719F80820FFF716F80E20AC
:10178000FFF713F80820FFF710F85420FFF70DF8C3
:10179000A920FFF70AF84320FFF707F80A20FFF710
:1017A00004F80F20FFF701F80020FEF7FEFF0020ED
:1017B000FEF7FBFF0020FEF7F8FF0020FEF7F5FF25
:1017C000E120FEF7E9FF0020FEF7EFFF1520FEF70E
:1017D000ECFF1720FEF7E9FF0720FEF7E6FF1120D8
:1017E000FEF7E3FF0620FEF7E0FF2B20FEF7DDFF0C
:1017F0005620FEF7DAFF3C20FEF7D7FF0520FEF764
:10180000D4FF1020FEF7D1FF0F20FEF7CEFF3F20C0
:10181000FEF7CBFF3F20FEF7C8FF0F20FEF7C5FF06
:101820002B20FEF7B9FF0020FEF7BFFF0020FEF7D8
:10183000BCFF0120FEF7B9FF3F20FEF7B6FF2A20CC
:10184000FEF7AAFF0020FEF7B0FF0020FEF7ADFF75
:101850000020FEF7AAFFEF20FEF7A7FF1120FEF7FA
:101860009BFF782004F05DFB2920FEF795FF02F036
:1018700053BFB8427ED11120FEF78EFF142004F032
:1018800050FBD020FEF788FF0720FEF78EFF422096
:10189000FEF78BFF1D20FEF788FFD120FEF77CFFAF
:1018A0000020FEF782FF1A20FEF77FFF0920FEF7D7
:1018B0007CFFD220FEF770FF0120FEF776FF22208A
:1018C000FEF773FFC020FEF767FF1020FEF76DFFE5
:1018D0003B20FEF76AFF0020FEF767FF0220FEF7BD
:1018E00064FF1120FEF761FFC520FEF755FF0320BE
:1018F000FEF75BFFC820FEF74FFF0020FEF755FF05
:101900002520FEF752FF2120FEF74FFF0520FEF7AE
:101910004CFF0020FEF749FF0A20FEF746FF652036
:10192000FEF743FF2520FEF740FF7720FEF73DFF3F
:101930005020FEF73AFF0F20FEF737FF0020FEF79A
:1019400034FFF820FEF728FF0120FEF72EFFFE20CF
:10195000FEF722FF0020FEF728FF0220FEF725FFFA
:101960002020FEF719FF3620FEF716FF0820FEF7AD
:101970001CFF00E02AE03A20FEF70EFF5520FEF79C
:1019800014FF2B20FEF708FF0020FEF70EFF0020BB
:10199000FEF70BFF0120FEF708FF3F20FEF705FFD3
:1019A0002A20FEF7F9FE0020FEF7FFFE0020FEF7DA
:1019B000FCFE0120FEF7F9FEDF20FEF7F6FE7820A0
:1019C00004F0AFFA2920FEF7E7FE50E7A8427CD1E9
:1019D000ED20FEF7E1FE0120FEF7E7FEFE20FEF718
:1019E000E4FEEE20FEF7D8FEDE20FEF7DEFE21202C
:1019F000FEF7DBFEF120FEF7CFFE0120FEF7D5FE5D
:101A0000DF20FEF7C9FE1020FEF7CFFEC420FEF750
:101A1000C3FE8F20FEF7C9FEC620FEF7BDFE0020E4
:101A2000FEF7C3FEE220FEF7C0FEE220FEF7BDFE99
:101A3000E220FEF7BAFEBF20FEF7AEFEAA20FEF7B8
:101A4000B4FEB020FEF7A8FE0D20FEF7AEFE00208B
:101A5000FEF7ABFE0D20FEF7A8FE0020FEF7A5FE68
:101A60001120FEF7A2FE0020FEF79FFE1920FEF7D0
:101A70009CFE0020FEF799FE2120FEF796FE002036
:101A8000FEF793FE2D20FEF790FE0020FEF78DFE60
:101A90003D20FEF78AFE0020FEF787FE5D20FEF760
:101AA00084FE0020FEF781FE5D20FEF77EFE002012
:101AB000FEF77BFEB120FEF76FFE8020FEF775FE7D
:101AC0000020FEF772FE8B2000E0FCE3FEF76DFEC7
:101AD0000020FEF76AFE9620FEF767FE0020FEF764
:101AE00064FEB220FEF758FE0020FEF75EFE0020E6
:101AF000FEF75BFE0220FEF758FE0020FEF755FEC3
:101B00000320FEF752FE0020FEF74FFEB320FEF743
:101B100043FE0020FEF749FE0020FEF746FE0020AF
:101B2000FEF743FE0020FEF740FE0020FEF73DFEDC
:101B30000020FEF73AFE0020FEF737FE0020FEF7F9
:101B400034FE0020FEF731FE0020FEF72EFE0020BE
:101B5000FEF72BFE0020FEF728FE0020FEF725FEF4
:101B60000020FEF722FE0020FEF71FFE0020FEF7F9
:101B70001CFE0020FEF719FE0020FEF716FE0020D6
:101B8000FEF713FE0020FEF710FE0020FEF70DFE0C
:101B90000020FEF70AFE0020FEF707FE0020FEF7F9
:101BA00004FEB420FEF7F8FD8B20FEF7FEFD0020BA
:101BB000FEF7FBFD9620FEF7F8FD0020FEF7F5FD91
:101BC000A120FEF7F2FD0020FEF7EFFDB520FEF7A5
:101BD000E3FD0220FEF7E9FD0020FEF7E6FD03200D
:101BE000FEF7E3FD0020FEF7E0FD0420FEF7DDFD3B
:101BF0000020FEF7DAFDB620FEF7CEFD0020FEF74E
:101C0000D4FD0020FEF7D1FDB720FEF7C5FD002072
:101C1000FEF7CBFD0020FEF7C8FD3F20FEF7C5FD17
:101C20000020FEF7C2FD5E20FEF7BFFD0020FEF79C
:101C3000BCFD6420FEF7B9FD0020FEF7B6FD8C2048
:101C4000FEF7B3FD0020FEF7B0FDAC20FEF7ADFDC2
:101C50000020FEF7AAFDDC20FEF7A7FD0020FEF71E
:101C6000A4FD7020FEF7A1FD0020FEF79EFD902050
:101C7000FEF79BFD0020FEF798FDEB20FEF795FD9B
:101C80000020FEF792FDDC20FEF78FFD0020FEF71E
:101C90008CFDB820FEF780FD0020FEF786FD0020B9
:101CA000FEF783FD0020FEF780FD0020FEF77DFD9E
:101CB0000020FEF77AFD0020FEF777FD0020FEF7FA
:101CC00074FD0020FEF771FDBA20FEF765FD2420AB
:101CD000FEF76BFD0020FEF768FD0020FEF765FDB6
:101CE0000020FEF762FDC120FEF756FD2020FEF722
:101CF0005CFD0020FEF759FD5420FEF756FD002044
:101D0000FEF753FDFF20FEF750FD0020FEF74DFDCE
:101D1000C220FEF741FD0A20FEF747FD0020FEF736
:101D200044FD0420FEF741FD0020FEF73EFDC320E8
:101D3000FEF732FD3C20FEF738FD0020FEF735FDB2
:101D40003A20FEF732FD0020FEF72FFD3920FEF786
:101D50002CFD0020FEF729FD3720FEF726FD002090
:101D6000FEF723FD3C20FEF720FD0020FEF71DFDC1
:101D70003620FEF71AFD0020FEF717FD3220FEF791
:101D800014FD0020FEF711FD2F20FEF70EFD0020B0
:101D9000FEF70BFD2C20FEF708FD0020FEF705FDE9
:101DA0002920FEF702FD0020FEF7FFFC2620FEF7AB
:101DB000FCFC0020FEF7F9FC2420FEF7F6FC0020D6
:101DC000FEF7F3FC2420FEF7F0FC0020FEF7EDFC0C
:101DD0002320FEF7EAFC0020FEF7E7FC3C20FEF79C
:101DE000E4FC0020FEF7E1FC3620FEF7DEFC0020DC
:101DF000FEF7DBFC3220FEF7D8FC0020FEF7D5FC16
:101E00002F20FEF7D2FC0020FEF7CFFC2C20FEF79F
:101E1000CCFC0020FEF7C9FC2920FEF7C6FC002000
:101E2000FEF7C3FC2620FEF7C0FC0020FEF7BDFC39
:101E30002420FEF7BAFC0020FEF7B7FC2420FEF7B2
:101E4000B4FC0020FEF7B1FC2320FEF7AEFC00201E
:101E5000FEF7ABFCC420FEF79FFC6220FEF7A5FC5A
:101E60000020FEF7A2FC0520FEF79FFC0020FEF7F5
:101E70009CFC8420FEF799FC0020FEF796FCF020E5
:101E8000FEF793FC0020FEF790FC1820FEF78DFC77
:101E90000020FEF78AFCA420FEF787FC0020FEF756
:101EA00084FC1820FEF781FC0020FEF77EFC502009
:101EB000FEF77BFC0020FEF778FC0C20FEF775FC9B
:101EC0000020FEF772FC1720FEF76FFC0020FEF7E3
:101ED0006CFC9520FEF769FC0020FEF766FCF32001
:101EE000FEF763FC0020FEF760FCE620FEF75DFCD9
:101EF0000020FEF75AFCC520FEF74EFC3220FEF70C
:101F000054FC0020FEF751FC4420FEF74EFC00205C
:101F1000FEF74BFC6520FEF748FC0020FEF745FC71
:101F20007620FEF742FC0020FEF73FFC8820FEF7FB
:101F30003CFC0020FEF739FCC620FEF72DFC2020DB
:101F4000FEF733FC0020FEF730FC1720FEF72DFCD7
:101F50000020FEF72AFC0120FEF727FC0020FEF7F8
:101F600024FCC720FEF718FC0020FEF71EFC002012
:101F7000FEF71BFC0020FEF718FC0020FEF715FC06
:101F8000C820FEF709FC0020FEF70FFC0020FEF73A
:101F90000CFC0020FEF709FC0020FEF706FCC9201F
:101FA000FEF7FAFB0020FEF700FC0020FEF7FDFB29
:101FB0000020FEF7FAFB0020FEF7F7FB0020FEF7FB
:101FC000F4FB0020FEF7F1FB0020FEF7EEFB002003
:101FD000FEF7EBFB0020FEF7E8FB0020FEF7E5FB39
:101FE0000020FEF7E2FB0020FEF7DFFB0020FEF7FB
:101FF000DCFB0020FEF7D9FB0020FEF7D6FB00201B
:10200000FEF7D3FBE020FEF7C7FB1620FEF7CDFB63
:102010000020FEF7CAFB1C20FEF7C7FB0020FEF7DE
:10202000C4FB2120FEF7C1FB0020FEF7BEFB3620DB
:10203000FEF7BBFB0020FEF7B8FB4620FEF7B5FB22
:102040000020FEF7B2FB5220FEF7AFFB0020FEF7A8
:10205000ACFB6420FEF7A9FB0020FEF7A6FB7A206C
:10206000FEF7A3FB0020FEF7A0FB8B20FEF79DFBF5
:102070000020FEF79AFB9920FEF797FB0020FEF761
:1020800094FBA820FEF791FB0020FEF78EFBB92001
:10209000FEF78BFB0020FEF788FBC420FEF785FBD4
:1020A0000020FEF782FBCA20FEF77FFB0020FEF730
:1020B0007CFBD220FEF779FB0020FEF776FBD920CF
:1020C000FEF773FB0020FEF770FBE020FEF76DFBD0
:1020D0000020FEF76AFBF320FEF767FB0020FEF707
:1020E00064FBE120FEF758FB1620FEF75EFB0020A4
:1020F000FEF75BFB1C20FEF758FB0020FEF755FBAC
:102100002220FEF752FB0020FEF74FFB3620FEF7A1
:102110004CFB0020FEF749FB4520FEF746FB002064
:10212000FEF743FB5220FEF740FB0020FEF73DFB8D
:102130006420FEF73AFB0020FEF737FB7A20FEF71B
:1021400034FB0020FEF731FB8B20FEF72EFB002036
:10215000FEF72BFB9920FEF728FB0020FEF725FB5E
:10216000A820FEF722FB0020FEF71FFBB920FEF798
:102170001CFB0020FEF719FBC420FEF716FB002015
:10218000FEF713FBCA20FEF710FB0020FEF70DFB45
:10219000D220FEF70AFB0020FEF707FBD820FEF74F
:1021A00004FB0020FEF701FBE020FEF7FEFA002012
:1021B000FEF7FBFAF320FEF7F8FA0020FEF7F5FA37
:1021C000E220FEF7E9FA0520FEF7EFFA0020FEF71D
:1021D000ECFA0B20FEF7E9FA0020FEF7E6FA1B20E6
:1021E000FEF7E3FA0020FEF7E0FA3420FEF7DDFA0E
:1021F0000020FEF7DAFA4420FEF7D7FA0020FEF7B7
:10220000D4FA4F20FEF7D1FA0020FEF7CEFA612073
:10221000FEF7CBFA0020FEF7C8FA7920FEF7C5FAE0
:102220000020FEF7C2FA8820FEF7BFFA0020FEF772
:10223000BCFA9720FEF7B9FA0020FEF7B6FAA620FE
:10224000FEF7B3FA0020FEF7B0FAB720FEF7ADFABA
:102250000020FEF7AAFAC220FEF7A7FA0020FEF738
:10226000A4FAC720FEF7A1FA0020FEF79EFAD120BB
:10227000FEF79BFA0020FEF798FAD620FEF795FAB3
:102280000020FEF792FADD20FEF78FFA0020FEF71D
:102290008CFAF320FEF789FA0020FEF786FAE32095
:1022A000FEF77AFA0520FEF780FA0020FEF77DFAA5
:1022B0000A20FEF77AFA0020FEF777FA1C20FEF7D4
:1022C00074FA002000E000E3FEF76FFA3320FEF717
:1022D0006CFA0020FEF769FA4420FEF766FA002047
:1022E000FEF763FA5020FEF760FA0020FEF75DFA71
:1022F0006220FEF75AFA0020FEF757FA7820FEF720
:1023000054FA0020FEF751FA8820FEF74EFA00201A
:10231000FEF74BFA9720FEF748FA0020FEF745FA41
:10232000A620FEF742FA0020FEF73FFAB720FEF79C
:102330003CFA0020FEF739FAC220FEF736FA0020F8
:10234000FEF733FAC720FEF730FA0020FEF72DFA29
:10235000D120FEF72AFA0020FEF727FAD520FEF753
:1023600024FA0020FEF721FADD20FEF71EFA0020F5
:10237000FEF71BFAF320FEF718FA0020FEF715FA15
:10238000E420FEF709FA0120FEF70FFA0020FEF71D
:102390000CFA0120FEF709FA0020FEF706FA0220E7
:1023A000FEF703FA0020FEF700FA2A20FEF7FDF9F7
:1023B0000020FEF7FAF93C20FEF7F7F90020FEF7BF
:1023C000F4F94B20FEF7F1F90020FEF7EEF95D205D
:1023D000FEF7EBF90020FEF7E8F97420FEF7E5F9C7
:1023E0000020FEF7E2F98420FEF7DFF90020FEF777
:1023F000DCF99320FEF7D9F90020FEF7D6F9A220E8
:10240000FEF7D3F90020FEF7D0F9B320FEF7CDF99F
:102410000020FEF7CAF9BE20FEF7C7F90020FEF73C
:10242000C4F9C420FEF7C1F90020FEF7BEF9CD20A3
:10243000FEF7BBF90020FEF7B8F9D320FEF7B5F997
:102440000020FEF7B2F9DD20FEF7AFF90020FEF71D
:10245000ACF9F320FEF7A9F90020FEF7A6F9E52074
:10246000FEF79AF90020FEF7A0F90020FEF79DF98B
:102470000020FEF79AF90020FEF797F90220FEF7F8
:1024800094F90020FEF791F92920FEF78EF900203B
:10249000FEF78BF93C20FEF788F90020FEF785F95E
:1024A0004B20FEF782F90020FEF77FF95D20FEF752
:1024B0007CF90020FEF779F97420FEF776F9002008
:1024C000FEF773F98420FEF770F90020FEF76DF92E
:1024D0009320FEF76AF90020FEF767F9A220FEF7C5
:1024E00064F90020FEF761F9B320FEF75EF90020E1
:1024F000FEF75BF9BE20FEF758F90020FEF755F90C
:10250000C420FEF752F90020FEF74FF9CD20FEF768
:102510004CF90020FEF749F9D320FEF746F90020D8
:10252000FEF743F9DC20FEF740F90020FEF73DF905
:10253000F320FEF73AF90020FEF737F9E620FEF720
:102540002BF91120FEF731F90020FEF72EF9342087
:10255000FEF72BF90020FEF728F95620FEF725F9A3
:102560000020FEF722F97620FEF71FF90020FEF783
:102570001CF97720FEF719F90020FEF716F96620FE
:10258000FEF713F90020FEF710F98820FEF70DF989
:102590000020FEF70AF99920FEF707F90020FEF760
:1025A00004F9BB20FEF701F90020FEF7FEF89920A0
:1025B000FEF7FBF80020FEF7F8F86620FEF7F5F8C6
:1025C0000020FEF7F2F85520FEF7EFF80020FEF7A6
:1025D000ECF85520FEF7E9F80020FEF7E6F8452074
:1025E000FEF7E3F80020FEF7E0F84320FEF7DDF801
:1025F0000020FEF7DAF84420FEF7D7F80020FEF7B7
:10260000D4F8E720FEF7C8F83220FEF7CEF8002015
:10261000FEF7CBF85520FEF7C8F80020FEF7C5F806
:102620007620FEF7C2F80020FEF7BFF86620FEF71E
:10263000BCF80020FEF7B9F86720FEF7B6F80020D6
:10264000FEF7B3F86720FEF7B0F80020FEF7ADF80C
:102650008720FEF7AAF80020FEF7A7F89920FEF7DA
:10266000A4F80020FEF7A1F8BB20FEF79EF800209A
:10267000FEF79BF89920FEF798F80020FEF795F8F2
:102680007720FEF792F80020FEF78FF84420FEF73F
:102690008CF80020FEF789F85620FEF786F8002017
:1026A000FEF783F82320FEF780F80020FEF77DF880
:1026B0003320FEF77AF80020FEF777F84520FEF782
:1026C00074F80020FEF771F8E820FEF765F80020A6
:1026D000FEF76BF80020FEF768F89920FEF765F822
:1026E0000020FEF762F88720FEF75FF80020FEF773
:1026F0005CF88820FEF759F80020FEF756F877209E
:10270000FEF753F80020FEF750F86620FEF74DF86C
:102710000020FEF74AF88820FEF747F80020FEF771
:1027200044F8AA20FEF741F80020FEF73EF8BB204F
:10273000FEF73BF80020FEF738F89920FEF735F851
:102740000020FEF732F86620FEF72FF80020FEF793
:102750002CF85520FEF729F80020FEF726F8552022
:10276000FEF723F80020FEF720F84420FEF71DF8BE
:102770000020FEF71AF84420FEF717F80020FEF7B5
:1027800014F85520FEF711F80020FEF70EF8E920A6
:10279000FEF702F8AA20FEF708F80020FEF705F879
:1027A0000020FEF702F80020FDF7FFFF0020FDF7F4
:1027B000F3FFAA20FDF7F9FFCF20FDF7EDFF002082
:1027C000FDF7F3FF0020FDF7F0FF0020FDF7EDFF20
:1027D0000020FDF7EAFF0020FDF7E7FF0020FDF7EE
:1027E000E4FF0020FDF7E1FF0020FDF7DEFF002001
:1027F000FDF7DBFF0020FDF7D8FF0020FDF7D5FF38
:102800000020FDF7D2FF0020FDF7CFFF0020FDF7ED
:10281000CCFF0020FDF7C9FF0020FDF7C6FF002018
:10282000FDF7C3FFF020FDF7B7FF0020FDF7BDFF68
:102830005020FDF7BAFF0020FDF7B7FF0020FDF79D
:10284000B4FF0020FDF7B1FFF320FDF7A5FF002046
:10285000FDF7ABFFF920FDF79FFF0620FDF7A5FF71
:102860001020FDF7A2FF2920FDF79FFF0020FDF7B4
:102870009CFF3A20FDF790FF5520FDF796FF1120B1
:10288000FDF78AFF642003F04CFB2920FDF784FF4D
:102890003520FDF781FF0020FDF787FF5120FDF770
:1028A0007BFFFF20FDF781FF5320FDF775FF2C20F4
:1028B000FDF77BFF5520FDF76FFF8220FDF775FFC9
:1028C0002C20FDF769FF01F027BFA0427DD14FF416
:1028D000704355211846FDF77AFF4FF20104AA21F3
:1028E0002046FDF774FF651C52212846FDF76FFF57
:1028F000A61C08213046FDF76AFFE71C0121384677
:10290000FDF765FF0D214FF43040FDF760FF0D210D
:102910004BF20100FDF75BFF0D214BF20200FDF7CA
:1029200056FF4FF4364A34215046FDF750FF34210C
:102930004BF20160FDF74BFF34214BF20260FDF7D3
:1029400046FF4FF4314B0D215846FDF740FF0D2156
:102950004BF20110FDF73BFF0D214BF20210FDF78A
:1029600036FF34214FF43740FDF731FF34214BF26D
:102970000170FDF72CFF34214BF20270FDF727FFA9
:1029800000214FF43240FDF722FF00214BF20120DD
:10299000FDF71DFF00214BF20220FDF718FF242157
:1029A0004FF43840FDF713FF24214BF60100FDF7EB
:1029B0000EFF24214BF60200FDF709FF01214FF421
:1029C0003F40FDF704FF0F2100E0FCE34FF43340EC
:1029D000FDF7FDFE0F214BF20130FDF7F8FE0F2150
:1029E0004BF20230FDF7F3FE34214FF43940FDF78E
:1029F000EEFE34214BF60110FDF7E9FE34214BF6D3
:102A00000210FDF7E4FE08214FF43540FDF7DFFE2C
:102A100008214BF20150FDF7DAFE08214BF202507B
:102A2000FDF7D5FE03214FF44240FDF7D0FE2421EF
:102A30004FF43A40FDF7CBFE24214BF60120FDF781
:102A4000C6FE24214BF60220FDF7C1FE00214FF403
:102A50003C40FDF7BCFE78214BF60140FDF7B7FE88
:102A600000214BF60240FDF7B2FE00214FF43D403D
:102A7000FDF7ADFE78214BF60150FDF7A8FE0021D1
:102A80004BF60250FDF7A3FE00214FF43E40FDF748
:102A90009EFE64214BF60160FDF799FE00214FF484
:102AA0005140FDF794FE33214DF20110FDF78FFEEA
:102AB00000214DF20210FDF78AFE34214DF2031081
:102AC000FDF785FE00214DF20410FDF780FE3A214E
:102AD0004DF20510FDF77BFE00214DF20610FDF7CB
:102AE00076FE4A214DF20710FDF771FE00214DF2EE
:102AF0000810FDF76CFE5C214DF20910FDF767FE32
:102B000000214DF20A10FDF762FE81214DF20B10FB
:102B1000FDF75DFE00214DF20C10FDF758FEA621D9
:102B20004DF20D10FDF753FE00214DF20E10FDF792
:102B30004EFEE5214DF20F10FDF749FE01214DF249
:102B40001010FDF744FE13214DF21110FDF73FFE6A
:102B500001214DF21210FDF73AFE54214DF21310EF
:102B6000FDF735FE01214DF21410FDF730FE8221F4
:102B70004DF21510FDF72BFE01214DF21610FDF759
:102B800026FECA214DF21710FDF721FE02214DF25B
:102B90001810FDF71CFE00214DF21910FDF717FE6D
:102BA00002214DF21A10FDF712FE01214DF21B1009
:102BB000FDF70DFE02214DF21C10FDF708FE342139
:102BC0004DF21D10FDF703FE02214DF21E10FDF720
:102BD000FEFD67214DF21F10FDF7F9FD02214DF2B8
:102BE0002010FDF7F4FD84214DF22110FDF7EFFDDB
:102BF00002214DF22210FDF7EAFDA4214DF223102F
:102C0000FDF7E5FD02214DF22410FDF7E0FDB721AF
:102C10004DF22510FDF7DBFD02214DF22610FDF7E8
:102C2000D6FDCF214DF22710FDF7D1FD02214DF247
:102C30002810FDF7CCFDDE214DF22910FDF7C7FD70
:102C400002214DF22A10FDF7C2FDF2214DF22B10A8
:102C5000FDF7BDFD02214DF22C10FDF7B8FDFE2160
:102C60004DF22D10FDF7B3FD03214DF22E10FDF7AF
:102C7000AEFD10214DF22F10FDF7A9FD03214DF2FD
:102C80003010FDF7A4FD33214DF23110FDF79FFD0B
:102C900003214DF23210FDF79AFD6D214DF23310F4
:102CA000FDF795FD00214FF45240FDF790FD3321D3
:102CB0004DF20120FDF78BFD00214DF20220FDF7C2
:102CC00086FD34214DF20320FDF781FD00214DF2F8
:102CD0000420FDF77CFD3A214DF20520FDF777FD3C
:102CE00000214DF20620FDF772FD4A214DF207202A
:102CF000FDF76DFD00214DF20820FDF768FD5C2118
:102D00004DF20920FDF763FD00214DF20A20FDF789
:102D10005EFD81214DF20B20FDF759FD00214DF2A2
:102D20000C20FDF754FDA6214DF20D20FDF74FFDBF
:102D300000214DF20E20FDF74AFDE5214DF20F2056
:102D4000FDF745FD01214DF21020FDF740FD132157
:102D50004DF21120FDF73BFD01214DF21220FDF750
:102D600036FD54214DF21320FDF731FD01214DF2C6
:102D70001420FDF72CFD82214DF21520FDF727FDD3
:102D800001214DF21620FDF722FDCA214DF2172038
:102D9000FDF71DFD02214DF21820FDF718FD002161
:102DA0004DF21920FDF713FD02214DF21A20FDF717
:102DB0000EFD01214DF21B20FDF709FD02214DF210
:102DC0001C20FDF704FD34214DF21D20FDF7FFFC12
:102DD00002214DF21E20FDF7FAFC67214DF21F2063
:102DE000FDF7F5FC02214DF22020FDF7F0FC8421D7
:102DF0004DF22120FDF7EBFC02214DF22220FDF7E0
:102E0000E6FCA4214DF22320FDF7E1FC02214DF266
:102E10002420FDF7DCFCB7214DF22520FDF7D7FC7F
:102E200002214DF22620FDF7D2FCCF214DF22720C2
:102E3000FDF7CDFC02214DF22820FDF7C8FCDE2174
:102E40004DF22920FDF7C3FC02214DF22A20FDF7A7
:102E5000BEFCF2214DF22B20FDF7B9FC02214DF210
:102E60002C20FDF7B4FCFE214DF22D20FDF7AFFC28
:102E700003214DF22E20FDF7AAFC10214DF22F2048
:102E8000FDF7A5FC03214DF23020FDF7A0FC332116
:102E90004DF23120FDF79BFC03214DF23220FDF76E
:102EA00096FC6D214DF23320FDF791FC00214FF48B
:102EB0005340FDF78CFC33214DF20130FDF787FCC8
:102EC00000214DF20230FDF782FC34214DF2033037
:102ED000FDF77DFC00214DF20430FDF778FC3A212E
:102EE0004DF20530FDF773FC00214DF20630FDF781
:102EF0006EFC4A214DF20730FDF769FC00214DF2CE
:102F00000830FDF764FC5C214DF20930FDF75FFCF1
:102F100000214DF20A30FDF75AFC81214DF20B30B1
:102F2000FDF755FC00214DF20C30FDF750FCA621B9
:102F30004DF20D30FDF74BFC00214DF20E30FDF748
:102F400046FCE5214DF20F30FDF741FC01214DF229
:102F50001030FDF73CFC13214DF21130FDF737FC2A
:102F600001214DF21230FDF732FC54214DF21330A5
:102F7000FDF72DFC01214DF21430FDF728FC8221D4
:102F80004DF21530FDF723FC01214DF21630FDF70F
:102F90001EFCCA214DF21730FDF719FC02214DF23B
:102FA0001830FDF714FC00214DF21930FDF70FFC2D
:102FB00002214DF21A30FDF70AFC01214DF21B30BF
:102FC000FDF705FC02214DF21C30FDF700FC342119
:102FD0004DF21D30FDF7FBFB02214DF21E30FDF7D7
:102FE000F6FB67214DF21F30FDF7F1FB02214DF298
:102FF0002030FDF7ECFB84214DF22130FDF7E7FB9B
:1030000002214DF22230FDF7E2FBA4214DF22330E4
:10301000FDF7DDFB02214DF22430FDF7D8FBB7218F
:103020004DF22530FDF7D3FB02214DF22630FDF79E
:10303000CEFBCF214DF22730FDF7C9FB02214DF227
:103040002830FDF7C4FBDE214DF22930FDF7BFFB30
:1030500002214DF22A30FDF7BAFBF2214DF22B305E
:10306000FDF7B5FB02214DF22C30FDF7B0FBFE2140
:103070004DF22D30FDF7ABFB03214DF22E30FDF765
:10308000A6FB10214DF22F30FDF7A1FB03214DF2DD
:103090003030FDF79CFB33214DF23130FDF797FBCB
:1030A00003214DF23230FDF792FB6D214DF23330AA
:1030B000FDF78DFB00214FF45440FDF788FB3321D1
:1030C0004DF20140FDF783FB00214DF20240FDF778
:1030D0007EFB34214DF20340FDF779FB00214DF2D8
:1030E0000440FDF774FB3A214DF20540FDF76FFBFC
:1030F00000214DF20640FDF76AFB4A214DF20740E0
:10310000FDF765FB00214DF20840FDF760FB5C21F7
:103110004DF20940FDF75BFB00214DF20A40FDF73F
:1031200056FB81214DF20B40FDF751FB00214DF282
:103130000C40FDF74CFBA6214DF20D40FDF747FB7F
:1031400000214DF20E40FDF742FBE5214DF20F400C
:10315000FDF73DFB01214DF21040FDF738FB132137
:103160004DF21140FDF733FB01214DF21240FDF706
:103170002EFB54214DF21340FDF729FB01214DF2A6
:103180001440FDF724FB82214DF21540FDF71FFB93
:1031900001214DF21640FDF71AFBCA214DF21740EE
:1031A000FDF715FB02214DF21840FDF710FB002141
:1031B0004DF21940FDF70BFB02214DF21A40FDF7CD
:1031C00006FB012100E000E34DF21B40FDF7FFFA92
:1031D00002214DF21C40FDF7FAFA34214DF21D4058
:1031E000FDF7F5FA02214DF21E40FDF7F0FA6721D6
:1031F0004DF21F40FDF7EBFA02214DF22040FDF7A2
:10320000E6FA84214DF22140FDF7E1FA02214DF268
:103210002240FDF7DCFAA4214DF22340FDF7D7FA56
:1032200002214DF22440FDF7D2FAB7214DF225409C
:10323000FDF7CDFA02214DF22640FDF7C8FACF2165
:103240004DF22740FDF7C3FA02214DF22840FDF769
:10325000BEFADE214DF22940FDF7B9FA02214DF206
:103260002A40FDF7B4FAF2214DF22B40FDF7AFFAF8
:1032700002214DF22C40FDF7AAFAFE214DF22D401D
:10328000FDF7A5FA03214DF22E40FDF7A0FA10211B
:103290004DF22F40FDF79BFA03214DF23040FDF730
:1032A00096FA33214DF23140FDF791FA03214DF2A8
:1032B0003240FDF78CFA6D214DF23340FDF787FA6D
:1032C00000214FF45540FDF782FA33214DF20150B1
:1032D000FDF77DFA00214DF20250FDF778FA342116
:1032E0004DF20350FDF773FA00214DF20450FDF743
:1032F0006EFA3A214DF20550FDF769FA00214DF2C0
:103300000650FDF764FA4A214DF20750FDF75FFAC7
:1033100000214DF20850FDF75AFA5C214DF2095098
:10332000FDF755FA00214DF20A50FDF750FA8121C0
:103330004DF20B50FDF74BFA00214DF20C50FDF70A
:1033400046FAA6214DF20D50FDF741FA00214DF24B
:103350000E50FDF73CFAE5214DF20F50FDF737FA1C
:1033600001214DF21050FDF732FA13214DF21150A8
:10337000FDF72DFA01214DF21250FDF728FA5421E4
:103380004DF21350FDF723FA01214DF21450FDF7D1
:103390001EFA82214DF21550FDF719FA01214DF266
:1033A0001650FDF714FACA214DF21750FDF70FFA27
:1033B00002214DF21850FDF70AFA00214DF2195082
:1033C000FDF705FA02214DF21A50FDF700FA01212E
:1033D0004DF21B50FDF7FBF902214DF21C50FDF799
:1033E000F6F934214DF21D50FDF7F1F902214DF2AD
:1033F0001E50FDF7ECF967214DF21F50FDF7E7F97C
:1034000002214DF22050FDF7E2F984214DF22150C6
:10341000FDF7DDF902214DF22250FDF7D8F9A42184
:103420004DF22350FDF7D3F902214DF22450FDF760
:10343000CEF9B7214DF22550FDF7C9F902214DF221
:103440002650FDF7C4F9CF214DF22750FDF7BFF903
:1034500002214DF22850FDF7BAF9DE214DF2295034
:10346000FDF7B5F902214DF22A50FDF7B0F9F2212E
:103470004DF22B50FDF7ABF902214DF22C50FDF728
:10348000A6F9FE214DF22D50FDF7A1F903214DF2D1
:103490002E50FDF79CF910214DF22F50FDF797F9B2
:1034A00003214DF23050FDF792F933214DF23150A6
:1034B000FDF78DF903214DF23250FDF788F96D21AA
:1034C0004DF23350FDF783F900214FF45640FDF7DC
:1034D0007EF933214DF20160FDF779F900214DF2BB
:1034E0000260FDF774F934214DF20360FDF76FF9C6
:1034F00000214DF20460FDF76AF93A214DF20560B2
:10350000FDF765F900214DF20660FDF760F94A21EB
:103510004DF20760FDF75BF900214DF20860FDF701
:1035200056F95C214DF20960FDF751F900214DF289
:103530000A60FDF74CF981214DF20B60FDF747F968
:1035400000214DF20C60FDF742F9A6214DF20D600D
:10355000FDF73DF900214DF20E60FDF738F9E52148
:103560004DF20F60FDF733F901214DF21060FDF7C8
:103570002EF913214DF21160FDF729F901214DF2C9
:103580001260FDF724F954214DF21360FDF71FF985
:1035900001214DF21460FDF71AF982214DF21560F8
:1035A000FDF715F901214DF21660FDF710F9CA215A
:1035B0004DF21760FDF70BF902214DF21860FDF78F
:1035C00006F900214DF21960FDF701F902214DF2D3
:1035D0001A60FDF7FCF801214DF21B60FDF7F7F8CA
:1035E00002214DF21C60FDF7F2F834214DF21D600E
:1035F000FDF7EDF802214DF21E60FDF7E8F86721B6
:103600004DF21F60FDF7E3F802214DF22060FDF757
:10361000DEF884214DF22160FDF7D9F802214DF248
:103620002260FDF7D4F8A4214DF22360FDF7CFF816
:1036300002214DF22460FDF7CAF8B7214DF2256052
:10364000FDF7C5F802214DF22660FDF7C0F8CF2145
:103650004DF22760FDF7BBF802214DF22860FDF71F
:10366000B6F8DE214DF22960FDF7B1F802214DF2E6
:103670002A60FDF7ACF8F2214DF22B60FDF7A7F8B8
:1036800002214DF22C60FDF7A2F8FE214DF22D60D3
:10369000FDF79DF803214DF22E60FDF798F81021FB
:1036A0004DF22F60FDF793F803214DF23060FDF7E6
:1036B0008EF833214DF23160FDF789F803214DF288
:1036C0003260FDF784F86D214DF23360FDF77FF82D
:1036D00055211846FDF77BF8AA212046FDF777F81B
:1036E00052212846FDF773F808213046FDF76FF8A0
:1036F00000213846FDF76BF8CC215846FDF767F8F6
:1037000000214BF20110FDF762F805215046FDF74C
:103710005EF870214FF43740FDF759F870214BF2F5
:103720000170FDF754F801214FF43840FDF74FF8D0
:1037300003214BF60100FDF74AF803214BF6020086
:10374000FDF745F803214BF60300FDF740F8022191
:103750004FF43C40FDF73BF800214BF60140FDF7EC
:1037600036F800214BF60240FDF731F8D0214FF436
:103770004940FDF72CF802214CF60110FDF727F81F
:1037800050214CF60210FDF722F850214CF60310A0
:10379000FDF71DF850214CF60410FDF718F8002134
:1037A0004FF45450FDF713F855214FF46850FDF7CE
:1037B0000EF84FF48850FCF7EFFF782002F083FBFF
:1037C0004FF42450FCF7E8FF58E3A0F513424FF400
:1037D00080744FF4E06740F2022A4FF4274B253AF9
:1037E0007ED0FD1DD21E7CD04FF4887B083279D06C
:1037F000113A78D0A0F5A842083A75D0A0F5A852A1
:103800004FF4407B053A70D0B2F520426ED088422A
:103810006DD100210846FCF7DAFF00210846FCF7CD
:10382000D6FF142002F07DFB00210846FCF7CFFFF5
:1038300000210846FCF7CBFF00210846FCF7C7FF34
:1038400000210846FCF7C3FF0121A420FCF7BFFFBD
:10385000142002F066FB4FF41C516020FCF7B7FF08
:1038600040F606010820FCF7B2FF2B1F1946302056
:10387000FCF7ADFF01213120FCF7A9FF0421322024
:10388000FCF7A5FFA11C3320FCF7A1FF594634200B
:10389000FCF79DFFE11C3520FCF799FF1F21362026
:1038A000FCF795FF19463720FCF791FF01213820DE
:1038B000FCF78DFF04213920FCF789FF15219020AA
:1038C000FCF785FF4FF482611020FCF780FF40F287
:1038D00047211120FCF77BFF4FF4DE71122007E037
:1038E00066E037E124E2CAE2A7E3FDE3FDE3FDE39E
:1038F000FCF76DFF79001320FCF769FF782002F0D8
:1039000010FB21460120FCF762FF61000220FCF75A
:103910005EFF41F230010320FCF759FF08210A2025
:10392000FCF755FF00210C20FCF751FF20210E2051
:10393000FCF74DFF00210F20FCF749FF002120205C
:10394000FCF745FF00212120FCF741FF3D212A2003
:10395000FCF73DFF142002F0E4FA2D212920FCF7AA
:1039600036FF00215020FCF732FF4DF2EF015120CD
:10397000FCF72DFF00215220FCF729FF40F23F11F8
:103980005320FCF724FF00216120FCF720FF0021D9
:103990006A20FCF71CFF59469220FCF718FF05210E
:1039A0009320FCF714FF21460720FCF710FF0BE7DC
:1039B00047F6F001E520FCF70AFF21460120FCF75D
:1039C00006FF39460220FCF702FF41F230010320D6
:1039D000FCF7FDFE00210420FCF7F9FE514608200B
:1039E000FCF7F5FE00210920FCF7F1FE00210A207A
:1039F000FCF7EDFE00210C20FCF7E9FE00210D2074
:103A0000FCF7E5FE00210F20FCF7E1FE002110206D
:103A1000FCF7DDFE07211120FCF7D9FE0021122062
:103A2000FCF7D5FE00211320FCF7D1FE0021072072
:103A3000FCF7CDFE41F290611020FCF7C8FE40F289
:103A400027211120FCF7C3FE9D211220FCF7BFFEA9
:103A50004FF4C8511320FCF7BAFE25212920FCF7AA
:103A6000B6FE0D212B20FCF7B2FE07213020FCF71B
:103A7000AEFE40F203313120FCF7A9FE03213220D3
:103A8000FCF7A5FE40F206213520FCF7A0FE082138
:103A90003620FCF79CFE40F206413720FCF797FEEB
:103AA0004FF441713820FCF792FE07213920FCF7D2
:103AB0008EFE40F202613C20FCF789FE08213D2089
:103AC000FCF785FE00215020FCF781FEEF215120FC
:103AD000FCF77DFE00215220FCF779FE40F23F11F9
:103AE0005320FCF774FE59466020FCF770FE01215C
:103AF0006120FCF76CFE00216A20FCF768FE0021C3
:103B00008020FCF764FE00218120FCF760FE00218C
:103B10008220FCF75CFE00218320FCF758FE002188
:103B20008420FCF754FE00218520FCF750FE102174
:103B30009020FCF74CFE4FF4C0619220FCF747FE4A
:103B400040F233110720FCF742FE22210020FCF74F
:103B50003EFE39E641F28F01EC20FCF738FE41F2DF
:103B60003421EF20FCF733FE21460120FCF72FFE25
:103B700039460220FCF72BFE41F230010320FCF70E
:103B800026FE00210420FCF722FE51460820FCF707
:103B90001EFE00210920FCF71AFE00210A20FCF776
:103BA00016FE01210C20FCF712FE00210D20FCF76F
:103BB0000EFE00210F20FCF70AFE00211020FCF76A
:103BC00006FE07211120FCF702FE00211220FCF75F
:103BD000FEFD00211320FCF7FAFD01210720FCF770
:103BE000F6FD322002F09DF941F290411020FCF7E1
:103BF000EEFD40F227211120FCF7E9FD322002F012
:103C000090F98A211220FCF7E2FD322002F089F9B6
:103C10004FF4D0511320FCF7DAFD06212920FCF7E0
:103C2000D6FD0D212B20FCF7D2FD322002F079F9D0
:103C300000212020FCF7CBFD00212120FCF7C7FD4F
:103C4000322002F06EF900213020FCF7C0FD40F276
:103C500004613120FCF7BBFD40F205313220FCF756
:103C6000B6FD00213520FCF7B2FD40F609413620B3
:103C7000FCF7ADFD4FF401713720FCF7A8FD40F2D1
:103C800001313820FCF7A3FD29463920FCF79FFDC0
:103C900000213C20FCF79BFD40F60A213D20FCF76B
:103CA00096FD322002F03DF900215020FCF78FFDF7
:103CB000EF215120FCF78BFD00215220FCF787FDFE
:103CC00040F23F115320FCF782FD59466020FCF77B
:103CD0007EFD01216120FCF77AFD00216A20FCF7BE
:103CE00076FD00218020FCF772FD00218120FCF789
:103CF0006EFD00218220FCF76AFD00218320FCF785
:103D000066FD00218420FCF762FD00218520FCF780
:103D10005EFD10219020FCF75AFD4FF4C061922007
:103D2000FCF755FD40F233110720FCF750FD4BE541
:103D300000210846FCF74BFD21460120FCF747FD1A
:103D400039460220FCF743FD41F230010320FCF725
:103D50003EFD00210420FCF73AFD51460820FCF707
:103D600036FD00210920FCF732FD00210A20FCF776
:103D70002EFD01210C20FCF72AFD00210D20FCF76F
:103D800026FD00210F20FCF722FD322002F0C9F8A9
:103D900040F201110720FCF71AFD322002F0C1F8B1
:103DA0004FF486511020FCF712FD07211120FCF77B
:103DB0000EFD59461220FCF70AFD4FF43061132026
:103DC000FCF705FD00212920FCF701FD44F210015C
:103DD0002B20FCF7FCFC00215020FCF7F8FCEF2125
:103DE0005120FCF7F4FC00215220FCF7F0FC40F2DB
:103DF0003F115320FCF7EBFC4FF41C516020FCF703
:103E0000E6FC01216120FCF7E2FC00216A20FCF7BE
:103E1000DEFC00218020FCF7DAFC00218120FCF789
:103E2000D6FC00218220FCF7D2FC00218320FCF785
:103E3000CEFC00218420FCF7CAFC00218520FCF781
:103E4000C6FC10219020FCF7C2FC00219220FCF758
:103E5000BEFC01219320FCF7BAFC59469520FCF7E3
:103E6000B6FC00219720FCF7B2FC00219820FCF75B
:103E7000AEFC40F273110720FCF7A9FC8AE241F284
:103E80001401E720FCF7A3FC21460120FCF79FFC6E
:103E90004FF400710220FCF79AFC41F23801032034
:103EA000FCF795FC51460820FCF791FC0021092005
:103EB000FCF78DFC00210A20FCF789FC00210C2076
:103EC000FCF785FC00210D20FCF781FC00210F2070
:103ED000FCF77DFC00211020FCF779FC0721112064
:103EE000FCF775FC00211220FCF771FC0021132067
:103EF000FCF76DFCC82002F014F841F2906110202C
:103F0000FCF765FC40F227211120FCF760FC322011
:103F100002F007F80C211220FCF759FC322002F0C5
:103F200000F84FF400611320FCF751FC1121292007
:103F3000FCF74DFC0B212B20FCF749FC322001F053
:103F4000F0FF00212020FCF742FC40F23F1319460D
:103F50002120FCF73CFC00213020FCF738FC4FF41A
:103F6000837421463120FCF732FC00213220FCF71B
:103F70002EFC4FF401713520FCF729FC41F20A6157
:103F80003620FCF724FC29463720FCF720FC21468C
:103F90003820FCF71CFC29463920FCF718FC40F2BD
:103FA00002413C20FCF713FC40F60F413D20FCF79A
:103FB0000EFC00215020FCF70AFCEF215120FCF7F9
:103FC00006FC00215220FCF702FC19465320FCF7A6
:103FD000FEFB4FF41C516020FCF7F9FB012161202E
:103FE000FCF7F5FB00216A20FCF7F1FB00218020A3
:103FF000FCF7EDFB00218120FCF7E9FB002182208A
:10400000FCF7E5FB00218320FCF7E1FB0021842085
:10401000FCF7DDFB00218520FCF7D9FB1021902067
:10402000FCF7D5FB4FF4C0619220FCF7D0FB40F2C7
:1040300033110720FCF7CBFB6EE321460120FCF790
:10404000C6FB39460220FCF7C2FB41F230010320D7
:10405000FCF7BDFB00210420FCF7B9FB40F207216F
:104060000820FCF7B4FB00210920FCF7B0FB00217D
:104070000A20FCF7ACFB00210C20FCF7A8FB002178
:104080000D20FCF7A4FB00210F20FCF7A0FB14205F
:1040900001F047FF41F2B0611020FCF798FB0121CD
:1040A0001120FCF794FB01211720FCF790FB4FF443
:1040B0009C711220FCF78BFB4FF400611320FCF77E
:1040C00086FB09212920FCF782FB09212A20FCF725
:1040D0007EFB0021A420FCF77AFB00215020FCF796
:1040E00076FBEF21512002E04AE054E151E2FCF777
:1040F0006EFB00215220FCF76AFB40F23F11532077
:10410000FCF765FB4FF41C516020FCF760FB0121BC
:104110006120FCF75CFB00216A20FCF758FB0021C2
:104120008020FCF754FB00218120FCF750FB00218C
:104130008220FCF74CFB00218320FCF748FB002188
:104140008420FCF744FB00218520FCF740FB132171
:104150009020FCF73CFB00219220FCF738FB032168
:104160009320FCF734FB59469520FCF730FB40F2D6
:1041700073110720FCF72BFB322001F0D2FECBE2BB
:1041800000210720FCF723FB322001F0CAFE4FF488
:104190008E711220FCF71BFB0121A420FCF717FBFA
:1041A0000F210820FCF713FB08210A20FCF70FFB66
:1041B00008210D20FCF70BFB29463020FCF707FBFC
:1041C00007213120FCF703FB40F203613220FCF7AA
:1041D000FEFA39463320FCF7FAFA51463420FCF750
:1041E000F6FA02213520FCF7F2FA41F60F7136207B
:1041F000FCF7EDFA29463720FCF7E9FA00213820D0
:10420000FCF7E5FA00213920FCF7E1FA29463A20CB
:10421000FCF7DDFA00213B20FCF7D9FA07213C200E
:10422000FCF7D5FA00213D20FCF7D1FA322001F04D
:1042300078FE01210720FCF7CAFA01211720FCF7BC
:10424000C6FA322001F06DFE4FF4BD511020FCF78C
:10425000BEFA40F217211120FCF7B9FA4FF48F7122
:104260001220FCF7B4FA4FF470611320FCF7AFFA98
:1042700000212A20FCF7ABFA0A212920FCF7A7FA33
:104280004FF49F711220FCF7A2FA00215020FCF796
:104290009EFAEF215120FCF79AFA00215220FCF7F8
:1042A00096FA40F23F115320FCF791FA4FF41C515B
:1042B0006020FCF78CFA01216120FCF788FA0021CC
:1042C0006A20FCF784FA00218020FCF780FA0021A4
:1042D0008120FCF77CFA00218220FCF778FA00218B
:1042E0008320FCF774FA00218420FCF770FA002187
:1042F0008520FCF76CFA13219020FCF768FA5946E8
:104300009220FCF764FA05219320FCF760FA002163
:104310009520FCF75CFA00219720FCF758FA002161
:104320009820FCF754FA21460120FCF750FA394650
:104330000220FCF74CFA41F238010320FCF747FA5F
:1043400000210420FCF743FA00210C20FCF73FFA7F
:1043500000210F20FCF73BFA00212020FCF737FA60
:1043600000212120FCF733FA21210720FCF72FFA46
:10437000142001F0D6FD61210720FCF728FA142053
:1043800001F0CFFD40F273110720FCF720FA142052
:1043900001F0C7FDC0E100210846FCF718FA002132
:1043A0000846FCF714FA00210846FCF710FA002131
:1043B0000846FCF70CFA0121A420FCF708FA1420A7
:1043C00001F0AFFD4FF41C5529466020FCF7FFF9C2
:1043D00051460820FCF7FBF94FF405713020FCF73B
:1043E000F6F943F215713120FCF7F1F940F204615E
:1043F0003220FCF7ECF940F616613320FCF7E7F9C0
:1044000042F211213420FCF7E2F94FF4A851352093
:10441000FCF7DDF948F207513620FCF7D8F941F2F4
:1044200007413720FCF7D3F941F203413820FCF76C
:10443000CEF920213920FCF7CAF91A219020FCF787
:10444000C6F900211020FCF7C2F907211120FCF762
:10445000BEF900211220FCF7BAF900211320FCF765
:10446000B6F9142001F05DFD4FF4E6611020FCF771
:10447000AEF940F237111120FCF7A9F9142001F030
:1044800050FD4FF4DC711220FCF7A1F9142001F06B
:1044900048FD4FF470611320FCF799F980212A2020
:1044A000FCF795F948212920FCF791F9142001F037
:1044B00038FD21460120FCF78AF939460220FCF735
:1044C00086F941F238010320FCF781F951460820B2
:1044D000FCF77DF900210A20FCF779F900210C2076
:1044E000FCF775F900210D20FCF771F930210E2041
:1044F000FCF76DF900215020FCF769F9EF215120FC
:10450000FCF765F900215220FCF761F940F23F11F8
:104510005320FCF75CF929466020FCF758F901218B
:104520006120FCF754F900216A20FCF750F91121B1
:104530009020FCF74CF94FF4C0619220FCF747F94A
:1045400040F202419320FCF742F902219420FCF74B
:104550003EF9142001F0E5FC01210720FCF737F9B2
:10456000142001F0DEFC61210720FCF730F940F255
:1045700073110720FCF72BF900212020FCF727F905
:1045800000212120FCF723F922210020FCF71FF94C
:10459000C2E0A0F58A4131397ED0091F7DD0B042FA
:1045A000F6D1E220FCF7F8F81D20FCF7FEF8022017
:1045B000FCF7FBF80420FCF7F8F8642001F083FC1A
:1045C000E020FCF7E9F80120FCF7EFF80A2001F001
:1045D000A8FCE020FCF7E0F80320FCF7E6F80C204C
:1045E00001F09FFC0120FCF7D7F80A2001F099FCAC
:1045F000E620FCF7D1F82F20FCF7D7F8FF20FCF7D6
:10460000D4F8FF20FCF7D1F8B020FCF7C5F8202043
:10461000FCF7CBF80020FCF7C8F80320FCF7C5F83E
:1046200040F21F30FCF7C1F80120FCF7BEF840F261
:10463000DF10FCF7BAF80020FCF7B7F8B420FCF75D
:10464000ABF80420FCF7B1F840F21F40FCF7ADF8DE
:104650000020FCF7AAF82E20FCF7A7F80020FCF7B2
:10466000A4F80020FCF7A1F80020FCF79EF8002039
:10467000FCF79BF8B620FCF78FF80220FCF795F8C2
:104680004FF40370FCF791F80020FCF78EF8172028
:10469000FCF78BF8152001E04AE0FEE0FCF785F816
:1046A0000020FCF782F80020FCF77FF8F020FCF7F0
:1046B00073F80320FCF779F82920FCF76DF8D02077
:1046C000FCF76AF80020FCF770F8BE20FCF764F8ED
:1046D0000520FCF76AF8FE20FCF767F80120FCF7DC
:1046E00064F80020FCF761F80020FCF75EF8002079
:1046F000FCF75BF8B820FCF74FF80320FCF755F8FF
:104700000120FCF752F8BA20FCF746F80120FCF72C
:104710004CF86420FCF7A5FB0020FCF7C5FBF7482C
:10472000C0F8BC824846FCF758FD21B0BDE8F08FC8
:1047300001210020FCF74BF80A2001F0F2FB41F2C6
:1047400028611020FCF743F80E211220FCF73FF8F7
:1047500040F639211320FCF73AF80A2001F0E1FB7A
:1047600040211120FCF733F850211520FCF72FF8D9
:104770000A2001F0D6FB1E211220FCF728F80A209F
:1047800001F0CFFB4FF4B1511020FCF720F842F6B6
:1047900039211320FCF71BF80A2001F0C2FB214647
:1047A0000120FCF714F859460220FCF710F841F2FA
:1047B00038010320FCF70BF851460820FCF707F8F6
:1047C00008210A20FCF703F800213020FBF7FFFF47
:1047D00040F202413120FBF7FAFF4FF4837132209F
:1047E000FBF7F5FF40F203513320FBF7F0FF4FF4E6
:1047F00082713420FBF7EBFF40F201313520FBF7EB
:10480000E6FF29463620FBF7E2FF40F2053137206C
:10481000FBF7DDFF4FF402713820FBF7D8FF40F6BD
:104820000B713920FBF7D3FF02214120FBF7CFFFAB
:104830004FF41C516020FBF7CAFF01216120FBF7F8
:10484000C6FF4FF404719020FBF7C1FF4FF4857150
:104850009220FBF7BCFF04219320FBF7B8FF214611
:10486000A020FBF7B4FF01210720FBF7B0FF2121B7
:104870000720FBF7ACFF23210720FBF7A8FF33211C
:104880000720FBF7A4FF40F233110720FBF79FFF3F
:104890000021A020FBF79BFF3EE730211520FBF70E
:1048A00096FF10219A20FBF792FF20211120FBF7A1
:1048B0008EFF43F228411020FBF789FF02211220CE
:1048C000FBF785FF41F238011320FBF780FF28201A
:1048D00001F027FB12210846FBF779FF282001F0A1
:1048E00020FB43F220411020FBF771FF43F2380117
:1048F0001320FBF76CFF462001F013FB0021302052
:10490000FBF765FF40F202413120FBF760FF40F208
:1049100007313220FBF75BFF4FF441713320FBF787
:1049200056FF04213420FBF752FF40F201413520AD
:10493000FBF74DFF29463620FBF749FF40F20531D2
:104940003720FBF744FF4FF4C26319463820FBF7CA
:104950003EFF19463920FBF73AFF21460120FBF7BD
:1049600036FF59460220FBF732FF41F230010320A7
:10497000FBF72DFF40F608010820FBF728FF082170
:104980000A20FBF724FF4FF41C516020FBF71FFFA8
:1049900001216120FBF71BFF4FF49F719020FBF773
:1049A00016FF21469220FBF712FF21469320FBF7CA
:1049B0000EFF4FF44051A020FBF709FF1021A32068
:1049C000FBF705FF01210720FBF701FF212107204D
:1049D000FBF7FDFE23210720FBF7F9FE332107201B
:1049E000FBF7F5FE40F233110720FBF7F0FE93E6EC
:1049F0002DE9F8438146089E9846414DA888A0F5C8
:104A0000D043043B02D1A879012807D0A2EB0900CA
:104A1000401C87B20C464FF0D8452CE00C46288845
:104A2000811A491E89B24246A0EB0900401E83B29A
:104A30000020A8712A276F814FF02B08A5F80C8061
:104A400020460096FFF7D4FF0120A871A5F80A8040
:104A5000AF81BDE8F88321464846FBF7DBFEFBF754
:104A6000C3FE002003E0A5F88060401C80B2B8427D
:104A7000F9D3641CA4B24445EDD9EAE72DE9F04727
:104A80008246DDF820800E46A2EB0A00401C85B26B
:104A9000981B401C87B200244FF0D84914E030190D
:104AA00081B25046FBF7B6FEFBF79EFE002207E000
:104AB00004FB052038F81000A9F88000521C92B2BF
:104AC000AA42F5D3641CA4B2BC42E8D3BDE8F08787
:104AD0002DE9FE4F00250026171AA3EB0108814699
:104AE0008A46681E002F03DD4FF0010101910CE0A2
:104AF00008D14FF00001019107E000000080404222
:104B0000A40000200190C7F10007B8F1000F03DDF9
:104B10004FF00100009007E003D14FF0000000903B
:104B200002E00090C8F10008474501DD3C4600E086
:104B300044464FF0000B601C029015E01FFA8AF10A
:104B40001FFA89F0FCF7E7F83D444644A54202DD30
:104B50002D1B01988144A64202DD361B0098824439
:104B60000BF1010B1FFA8BFB02988345E6DDBDE8D4
:104B7000FE8FF0B505460E4614461F4633462246C4
:104B800031462846FFF7A4FF3B462A4631462846D1
:104B9000FFF79EFF3B46224639462846FFF798FF1F
:104BA0003B46224631462046BDE8F04090E72DE9DD
:104BB000FC4F07468846002415460320A0EB42061A
:104BC0004BE0A8EB050081B207EB040A01901FFA45
:104BD0008AF0FCF7A0F8A8EB040081B207EB050906
:104BE00000901FFA89F0FCF796F808EB040B1FFA07
:104BF0008BF11FFA89F0FCF78EF808EB05091FFA14
:104C000089F11FFA8AF0FCF786F81FFA89F1A7EB01
:104C100004091FFA89F0FCF77EF8A7EB050A1FFAD2
:104C20008BF11FFA8AF0FCF776F8019881B21FFA2F
:104C300089F0FCF770F8009881B21FFA8AF0FCF74F
:104C40006AF8641C002E03DA06EB8406B61D04E045
:104C5000601B06EB80060A366D1EAC42B1DDBDE876
:104C6000FC8F2DE9F84F82460C461F46A346780775
:104C700001D0012000E0002000EBD7007908484374
:104C8000C0B20090203A02F0FF09002649E00C2F44
:104C900014D0102F19D0182F46D1814909EBC90023
:104CA00001EB8000855D4FF00008280612D57D4895
:104CB000214602885046FCF738F813E07A4909EBA0
:104CC000490001EB8000855DEDE7784800EB0910B5
:104CD000855DE8E70A9828B972482146428850461F
:104CE000FCF723F86806050E641CA4B270484088DF
:104CF000A04219D9A4EB0B00B84209D15C460AF1D5
:104D0000010A1FFA8AFA6A48008850450CD906E061
:104D100008F1010808F0FF08B8F1080FC5D3761CA8
:104D2000F6B200988642B2D3BDE8F88F0346012060
:104D300000E05843491EC9B2FBD270472DE9FF4F2E
:104D400081B08046DDF838B092461D46002600242A
:104D5000A1464FEA5B071FE0281B401EC1B20A2094
:104D6000FFF7E4FFBAFBF0F00A21B0FBF1F201FB20
:104D7000120026B9691E8C4201DA88B10126303052
:104D8000C2B207FB048080B25B46CDF80090029966
:104D9000FFF767FF641CE4B2AC42DDD305B0C5E4A5
:104DA00007FB048080B25B462022CDF80090029978
:104DB000FFF757FFEEE72DE9FF4F81B08046DDF8A2
:104DC0003CA093461F464FF0000900240E980AF0BD
:104DD0000105460821E0381B401EC1B20A20FFF73A
:104DE000A5FFBBFBF0F00A21B0FBF1F201FB1200C2
:104DF000B9F1000F05D1791E8C4202DA80B14FF073
:104E000001093030C2B206FB048080B200950E9BCF
:104E10000299FFF726FF641CE4B2BC42DBD3BDE776
:104E20005FEA0A6009D506FB048080B20095302253
:104E30000E9B0299FFF715FFEDE706FB048080B299
:104E4000009520220E9B0299FFF70BFFE3E72DE967
:104E5000F84F0446DDE90A760D4604F0FF08101904
:104E60001FFA80F958191FFA80FA4FF0000B11E071
:104E70004C4502D34446E81985B255450FD23B460E
:104E800029462046CDF800B0FFF7EBFE04EB5700B3
:104E900084B2761C3278A2F120005E28E8D943E77C
:104EA000C8A8000840000020649E0008D8A200089E
:104EB000A40000201CB50121112001F008FF1820DA
:104EC000009000208DF8040003208DF805000124D7
:104ED0008DF807406946354801F0A6FA0094022093
:104EE0008DF807006946324801F09EFA1CBD2DE995
:104EF000F04101252F4C002800D0257020782C4F40
:104F00002A4EA0B11021304601F0E2FAB0B10821DA
:104F1000304601F0DDFA88B10421304601F0D8FABC
:104F200060B10121384601F0D3FA012806D01021E2
:104F3000304601F0CDFA012824D035E00A2000F0F7
:104F4000F0FF002020701021304601F0C1FA80B13E
:104F50000821304601F0BCFA70B10421304601F05E
:104F6000B7FA58B10121384601F0B2FA012807D04A
:104F70001AE00020BDE8F0810120FBE70220F9E7FC
:104F80000420F7E70821304601F0A2FA01280BD1EE
:104F90000421304601F09CFA012805D10121384650
:104FA00001F096FA00B925700320E3E700100240F3
:104FB000000002404400002070B50546914C0221DB
:104FC000204603F078F80028F9D02946204603F05F
:104FD0003FF80121204603F06EF80028F9D0204662
:104FE00003F034F8C0B270BD2DE9F04387B0012161
:104FF000084601F06CFE4FF480580121404601F054
:1050000096FE3827059702258DF8185000248DF854
:105010001A4003208DF8190001268DF81B60DFF877
:10502000E89105A9484601F0FFF905220321484609
:1050300001F072FA05220421484601F06DFA0522BA
:105040001146484601F068FA0121404601F0ABFEE6
:105050000021404601F0A7FEADF800404FF48270F9
:10506000ADF80200ADF80440ADF80650ADF80860A8
:105070002802ADF80A00ADF80C70ADF80E4007201C
:10508000ADF810005F4C6946204602F0CDFE0121CC
:10509000204602F06BFFFF20FFF78EFF07B0BDE850
:1050A000F08301465748028822F0380202800288C5
:1050B0000A430280012102F059BF70B50546534CE6
:1050C0000221204602F0F7FF0028F9D029462046A9
:1050D00002F0BEFF0121204602F0EDFF0028F9D0CA
:1050E000204602F0B3FFC0B270BD2DE9F0418AB096
:1050F0000121084601F0EBFD0121042001F0E7FD4C
:105100000121CF03384601F006FE0121202001F0E5
:10511000DEFD0121082001F0DAFD40200690012586
:105120008DF81C5000248DF81E4003268DF81D605C
:105130008DF81F50DFF8D88006A9404601F074F9B9
:105140001021404601F0D8F90C2008908DF8245029
:105150008DF826408DF825608DF8275008A9404627
:1051600001F062F94FF4E050089002208DF824001D
:105170008DF826408DF825608DF82750254E08A91A
:10518000304601F051F906220C21304601F0C4F9F5
:1051900006220B21304601F0BFF906220A213046D3
:1051A00001F0BAF90121384601F0F1FD002138463D
:1051B00001F0EDFD18480560ADF804404FF4827031
:1051C000ADF80600ADF80840ADF80A40ADF80C4067
:1051D0006802ADF80E002020ADF81000ADF81240C6
:1051E0000720ADF81400094C01A9204602F01CFE6E
:1051F0000121204602F0BAFEFF20FFF75EFF0AB051
:10520000BDE8F0810030014000040240003C004055
:10521000000C0240000802408C824142704710B5E9
:10522000AB4C002020600520FFF7C6FEFF20FFF7F3
:10523000C3FE0121216010BD70B50546A44C0021BC
:1052400021600120FFF7B8FE2846FFF7B5FE0120D8
:10525000206070BD10B59E4C002020600620FFF736
:10526000ABFE0120206010BD10B5994C00202060DD
:105270000420FFF7A1FE0120206010BD70B5944D01
:1052800000242C609020FFF797FE0020FFF794FE8B
:105290000020FFF791FE0020FFF78EFEFF20FFF7B2
:1052A0008BFE44EA0024FF20FFF786FE2043012105
:1052B000296070BD2DE9F04105460C461646854F24
:1052C0000020C7F8B8020320FFF776FEC4F30740BA
:1052D000FFF772FEC4F30720FFF76EFEE0B2FFF7A0
:1052E0006BFE002405E0FF20FFF766FE2855641CD6
:1052F000A4B2B442F7D30120C7F8B802BDE8F081E8
:1053000010B5FFF78CFFC007FBD110BD2DE9F041B0
:1053100005460C461646FFF79DFF6E4F0020C7F866
:10532000B8020220FFF748FEC4F30740FFF744FE2F
:10533000C4F30720FFF740FEE0B2FFF73DFE002474
:1053400004E0285DFFF738FE641CA4B2B442F8D331
:105350000120C7F8B802BDE8F041D1E72DE9F041DE
:1053600007460E461546F0B2C0F58074A54200D837
:105370002C464FF4807807E027442644281B85B24A
:105380004446A54200D82C46224631463846FFF70F
:10539000BDFFA542F0D1B1E770B5044621464EA04D
:1053A00004F068FB2403FFF755FFFFF7A9FF484D02
:1053B000002028602020FFF7FFFDC4F30740FFF71F
:1053C000FBFDC4F30720FFF7F7FDE0B2FFF7F4FDA4
:1053D00001202860BDE8704092E72DE9F05F80462B
:1053E0008A461546DFF8F8904FEA1A37CAF30B06DB
:1053F000C6F58054A54233D82C4631E0311819F84F
:105400000110FF2903D1401C80B2A042F6D3A04274
:1054100014D23846FFF7C0FF002006E0821918F8C2
:10542000001009F80210401C80B2A042F6D3594681
:105430004FF480524846FFF791FF04E02246514660
:105440004046FFF78BFFA54214D07F1C0026A044E6
:10545000A244281B85B24FF48054A54200D82C46A4
:105460004FEA073B4FF4805259464846FFF722FF68
:105470000020CAE7BDE8F09F10B5FFF7EBFEFFF78D
:105480003FFF134C00202060C720FFF795FD01204F
:105490002060BDE8104033E710B50D4C00202060BF
:1054A000B920FFF789FD01202060BDE810400320EE
:1054B00000F009BD10B5064C00202060AB20FFF7BE
:1054C0007BFD01202060BDE81040032000F0FBBC04
:1054D000B88240420080404266653A25780D0A0055
:1054E000B200002008B58DF800008DF801108DF88D
:1054F00002208DF803306946002002F036FF08BD17
:1055000008B58DF802208DF801108DF800308DF867
:1055100003006946002002F0A8FF08BD3EB541F631
:10552000FF740121080701F0F6FB012003F0FEFBE8
:10553000002003F0C4FA45F25005A8422ED0012005
:1055400001F0B4FA04E0641CA4B20A2000F0E9FC03
:10555000412001F06FFA0028F5D00CB34FF48070B1
:1055600001F067FB012001F079FB7F200190FF2013
:10557000029000200090684602F078FE00231A4650
:1055800019460C20FFF7AEFF01231A4619461020DA
:10559000FFF7B6FF2946002003F088FA00203EBD41
:1055A00001203EBD2DE9F04188B005460C46164667
:1055B0001F464FF480780021404603F06FF88DF8C5
:1055C00004408DF805608DF8067000248DF80740C2
:1055D0008DF814504FF0804004900394019802908D
:1055E00002AA4146002002F0BDFF4FF4805630462B
:1055F00003F00CFB7501284603F084FB01213046C3
:1056000003F0B2FA0121404603F048F806958DF800
:105610001C4008208DF81D0001248DF81E4006A8AE
:1056200003F016FB36482921017002214170817078
:10563000C47000F00CFE08B0BDE8F0817CB50546F2
:105640000C46002003F09EF8284603F078F8204628
:1056500003F087F84FF48045284603F0D7FA2C0270
:10566000204603F04FFB0121284603F07DFA01207C
:1056700003F088F8009400208DF8040008208DF8CD
:10568000050001248DF80640684603F0E1FA1C4845
:1056900003210170022141708170C47000F0D7FDB8
:1056A0007CBD10B54FF48074204603F07EFA0128CB
:1056B00005D1204603F084FA12A004F0DBF9BDE81E
:1056C00010404FF4003003F01DBB10B54FF4806460
:1056D000204603F06AFA012809D1204603F070FA47
:1056E0000B49D1F8A80240B10020C1F8A802BDE8DA
:1056F00010404FF4800003F005BB0120F5E70000E7
:1057000045000020414C41524D2041210D0A00002E
:10571000008042427FB504460D460121022001F07F
:10572000FAFA0294ADF804500024ADF80640ADF842
:105730000C40824D01A9284601F07AFE0122114653
:10574000284602F048FA0121284601F0EFFE1D200C
:105750008DF8000001208DF801008DF802408DF8D1
:105760000300684600F073FD7FBD7FB504460D461B
:105770000121084601F0CFFA0294ADF80450002050
:10578000ADF80600ADF80C004FF0804401A92046AA
:1057900001F04EFE0021204601F0C8FE0122114614
:1057A000204602F018FA0021204601F0BFFE1C201E
:1057B0008DF8000002208DF801008DF80200012014
:1057C0008DF80300684600F042FD7FBD2DE9FE43E1
:1057D000DFF86C814FF0804798F80000002830D047
:1057E0004FF6FF70FBF7F9FC1021564803F0D8FF85
:1057F00054490C2000F0C8F80025012640B32820A9
:1058000004F0FAFA04464F484FA350A1027820460C
:1058100004F040F93020CDE9010603464B216E2209
:105820000094084603F018FC204604F0BDFA88F8FE
:10583000005048480168C94301600021384601F022
:1058400075FE03B03846BDE8F043012102F0E5B92A
:10585000414C2660462000F064FB2560F1E7FEB570
:10586000364D0121284602F0CCF901285ED100F026
:10587000B0F90020FFF73BFB032801D0374908703F
:10588000374E3088411C31801421B0FBF1F201FB0E
:1058900012000024A0B92F48001F0168C94301600D
:1058A0007088411C71800521B0FBF1F201FB1200F0
:1058B00030B90120B08006212A4800F0F1F8B48008
:1058C00030886421B0FBF1F201FB1200182130B1E5
:1058D0001E280ED03C2816D05A2827D11DE022A021
:1058E0008DE81300192118236422084603F0B4FB45
:1058F0001CE01FA08DE8130019211823642208461C
:1059000003F0AAFB12E01CA08DE813001921182354
:105910006422084603F0A0FB08E019A08DE81300FC
:10592000192118236422084603F096FB03B0284689
:10593000BDE8F040012102F070B900000004004011
:1059400002000020B2100020B5E30000256425739A
:1059500000000000A88242429C82414201000020D7
:105960004A0000202600002072756E2020200000D2
:1059700072756E2E2020000072756E2E2E000000B3
:1059800072756E2E2E2E0000F0B585B005460C46C1
:1059900045F00307304E012030600A2000F0C1FAC4
:1059A000002030600A2000F0BCFA03F079FC3F2DA3
:1059B00002D9002005B0F0BD04A9522003F0C0FDBB
:1059C00010B9264803F0B0FE10B9244803F07AFE5F
:1059D00028B9224B39461A1D602003F04AFE18B937
:1059E0006946284603F0DCFD08B10020E2E700200C
:1059F0006A46115C2154401CC0B21028F9D3012022
:105A0000D8E77CB504460D4644F003063F2C01D987
:105A100000207CBD01A9522003F092FD10B9684618
:105A200003F082FE10B9684603F04CFE30B90B4A11
:105A30006B46121D3146602003F01BFE38B9294623
:105A4000204603F0D2FD06490A68D2430A6008B135
:105A500000207CBD01207CBD988241425100002085
:105A6000A88242421CB50121082001F030F98020B3
:105A7000009001208DF8040000218DF8061003210C
:105A80008DF805108DF80700044C6946204600F09B
:105A9000CBFC8021204600F02FFD1CBD000C0240F5
:105AA0002DE9F04105460F46DFF8A080B8F8000068
:105AB000002803D11221264803F072FE002400269C
:105AC0001BE0781E844201D155202870B81E844204
:105AD00000D12E7014B128783044C6B2287800F076
